{
  "contractName": "Count",
  "abi": [
    {
      "constant": true,
      "inputs": [],
      "name": "count",
      "outputs": [
        {
          "name": "",
          "type": "uint256"
        }
      ],
      "payable": false,
      "stateMutability": "view",
      "type": "function"
    },
    {
      "constant": true,
      "inputs": [],
      "name": "getBlockNumber",
      "outputs": [
        {
          "name": "",
          "type": "uint256"
        }
      ],
      "payable": false,
      "stateMutability": "view",
      "type": "function"
    },
    {
      "constant": false,
      "inputs": [
        {
          "name": "_count",
          "type": "uint256"
        }
      ],
      "name": "setCount",
      "outputs": [],
      "payable": false,
      "stateMutability": "nonpayable",
      "type": "function"
    }
  ],
  "bytecode": "0x60806040526000805534801561001457600080fd5b5061011d806100246000396000f3fe608060405260043610604d576000357c01000000000000000000000000000000000000000000000000000000009004806306661abd14605257806342cbb15c14607a578063d14e62b81460a2575b600080fd5b348015605d57600080fd5b50606460d9565b6040518082815260200191505060405180910390f35b348015608557600080fd5b50608c60df565b6040518082815260200191505060405180910390f35b34801560ad57600080fd5b5060d76004803603602081101560c257600080fd5b810190808035906020019092919050505060e7565b005b60005481565b600043905090565b806000819055505056fea165627a7a723058203b77cf24f9592017f7f2ac33aa3b21ae6ea88ebfe10d10b1bfb41c6a779868f00029",
  "source": "// Klaytn IDE uses solidity 0.4.24, 0.5.6 versions.\npragma solidity >=0.4.24 <=0.5.6;\n\ncontract Count {\n    // Storage variable `count` (type: uint256)\n    uint256 public count = 0;\n\n    // Get current node's block number.\n    function getBlockNumber() public view returns (uint256) {\n      return block.number;\n    }\n\n    // Set value of storage variable `count`.\n    function setCount(uint256 _count) public {\n      count = _count;\n    }\n}",
  "sourcePath": "/Users/aeharv/project/github/personal-project/smart-contract/contracts/Count.sol",
  "compiler": {
    "name": "solc",
    "version": "0.5.1+commit.c8a2cb62.Linux.g++"
  },
  "schemaVersion": "3.0.16",
  "updatedAt": "2020-09-13T10:19:06.620Z",
  "devdoc": {
    "methods": {}
  },
  "userdoc": {
    "methods": {}
  }
}