{
  "contractName": "ProjectFinance",
  "abi": [
    {
      "constant": true,
      "inputs": [
        {
          "name": "",
          "type": "uint256"
        }
      ],
      "name": "projectsLUT",
      "outputs": [
        {
          "name": "",
          "type": "bytes32"
        }
      ],
      "payable": false,
      "stateMutability": "view",
      "type": "function"
    },
    {
      "constant": true,
      "inputs": [
        {
          "name": "",
          "type": "address"
        }
      ],
      "name": "bankAccounts",
      "outputs": [
        {
          "name": "name",
          "type": "bytes32"
        },
        {
          "name": "accountNumber",
          "type": "bytes32"
        },
        {
          "name": "doesExist",
          "type": "bool"
        }
      ],
      "payable": false,
      "stateMutability": "view",
      "type": "function"
    },
    {
      "constant": true,
      "inputs": [
        {
          "name": "",
          "type": "bytes32"
        }
      ],
      "name": "projects",
      "outputs": [
        {
          "name": "projectId",
          "type": "bytes32"
        },
        {
          "name": "pfBanker",
          "type": "address"
        },
        {
          "name": "pfEnforcer",
          "type": "address"
        },
        {
          "name": "pfConstructor",
          "type": "address"
        },
        {
          "name": "doesExist",
          "type": "bool"
        }
      ],
      "payable": false,
      "stateMutability": "view",
      "type": "function"
    },
    {
      "inputs": [],
      "payable": false,
      "stateMutability": "nonpayable",
      "type": "constructor"
    },
    {
      "anonymous": false,
      "inputs": [
        {
          "indexed": true,
          "name": "addr",
          "type": "address"
        },
        {
          "indexed": false,
          "name": "name",
          "type": "bytes32"
        },
        {
          "indexed": false,
          "name": "accountNumber",
          "type": "bytes32"
        }
      ],
      "name": "CreateBankAccount",
      "type": "event"
    },
    {
      "anonymous": false,
      "inputs": [
        {
          "indexed": false,
          "name": "projectId",
          "type": "bytes32"
        },
        {
          "indexed": true,
          "name": "pfBanker",
          "type": "address"
        },
        {
          "indexed": true,
          "name": "pfEnforcer",
          "type": "address"
        },
        {
          "indexed": true,
          "name": "pfConstructor",
          "type": "address"
        }
      ],
      "name": "CreateProject",
      "type": "event"
    },
    {
      "constant": false,
      "inputs": [
        {
          "name": "_addr",
          "type": "address"
        },
        {
          "name": "_name",
          "type": "bytes32"
        },
        {
          "name": "_accountNumber",
          "type": "bytes32"
        }
      ],
      "name": "createBankAccount",
      "outputs": [
        {
          "name": "",
          "type": "bool"
        }
      ],
      "payable": false,
      "stateMutability": "nonpayable",
      "type": "function"
    },
    {
      "constant": false,
      "inputs": [
        {
          "name": "_projectId",
          "type": "bytes32"
        },
        {
          "name": "_pfBanker",
          "type": "address"
        },
        {
          "name": "_pfEnforcer",
          "type": "address"
        },
        {
          "name": "_pfConstructor",
          "type": "address"
        }
      ],
      "name": "createProject",
      "outputs": [
        {
          "name": "",
          "type": "bool"
        }
      ],
      "payable": false,
      "stateMutability": "nonpayable",
      "type": "function"
    }
  ],
  "bytecode": "0x608060405234801561001057600080fd5b5061092c806100206000396000f3fe608060405260043610610067576000357c01000000000000000000000000000000000000000000000000000000009004806324a550311461006c578063263a4032146100bb57806334f4c37e1461016e578063979d7727146101e5578063b96ea12d14610262575b600080fd5b34801561007857600080fd5b506100a56004803603602081101561008f57600080fd5b8101908080359060200190929190505050610355565b6040518082815260200191505060405180910390f35b3480156100c757600080fd5b50610154600480360360808110156100de57600080fd5b8101908080359060200190929190803573ffffffffffffffffffffffffffffffffffffffff169060200190929190803573ffffffffffffffffffffffffffffffffffffffff169060200190929190803573ffffffffffffffffffffffffffffffffffffffff169060200190929190505050610378565b604051808215151515815260200191505060405180910390f35b34801561017a57600080fd5b506101bd6004803603602081101561019157600080fd5b81019080803573ffffffffffffffffffffffffffffffffffffffff1690602001909291905050506105eb565b6040518084815260200183815260200182151515158152602001935050505060405180910390f35b3480156101f157600080fd5b506102486004803603606081101561020857600080fd5b81019080803573ffffffffffffffffffffffffffffffffffffffff1690602001909291908035906020019092919080359060200190929190505050610622565b604051808215151515815260200191505060405180910390f35b34801561026e57600080fd5b5061029b6004803603602081101561028557600080fd5b810190808035906020019092919050505061085d565b604051808681526020018573ffffffffffffffffffffffffffffffffffffffff1673ffffffffffffffffffffffffffffffffffffffff1681526020018473ffffffffffffffffffffffffffffffffffffffff1673ffffffffffffffffffffffffffffffffffffffff1681526020018373ffffffffffffffffffffffffffffffffffffffff1673ffffffffffffffffffffffffffffffffffffffff168152602001821515151581526020019550505050505060405180910390f35b60028181548110151561036457fe5b906000526020600020016000915090505481565b600084600015156001600083815260200190815260200160002060030160149054906101000a900460ff16151514151561041a576040517f08c379a00000000000000000000000000000000000000000000000000000000081526004018080602001828103825260208152602001807f676976656e205f70726f6a656374496420616c7265616479206578697374732e81525060200191505060405180910390fd5b856001600088815260200190815260200160002060000181905550846001600088815260200190815260200160002060010160006101000a81548173ffffffffffffffffffffffffffffffffffffffff021916908373ffffffffffffffffffffffffffffffffffffffff160217905550836001600088815260200190815260200160002060020160006101000a81548173ffffffffffffffffffffffffffffffffffffffff021916908373ffffffffffffffffffffffffffffffffffffffff160217905550826001600088815260200190815260200160002060030160006101000a81548173ffffffffffffffffffffffffffffffffffffffff021916908373ffffffffffffffffffffffffffffffffffffffff160217905550600180600088815260200190815260200160002060030160146101000a81548160ff0219169083151502179055508273ffffffffffffffffffffffffffffffffffffffff168473ffffffffffffffffffffffffffffffffffffffff168673ffffffffffffffffffffffffffffffffffffffff167ff9e666999799b7f9a2e2044f8ea30219c67ad8ef5309d0b983617384c0b3fc0b896040518082815260200191505060405180910390a46001915050949350505050565b60006020528060005260406000206000915090508060000154908060010154908060020160009054906101000a900460ff16905083565b600083600015156000808373ffffffffffffffffffffffffffffffffffffffff1673ffffffffffffffffffffffffffffffffffffffff16815260200190815260200160002060020160009054906101000a900460ff161515141515610715576040517f08c379a00000000000000000000000000000000000000000000000000000000081526004018080602001828103825260238152602001807f676976656e205f6164647220616c7265616479206861732062616e6b4163636f81526020017f756e74000000000000000000000000000000000000000000000000000000000081525060400191505060405180910390fd5b836000808773ffffffffffffffffffffffffffffffffffffffff1673ffffffffffffffffffffffffffffffffffffffff16815260200190815260200160002060000181905550826000808773ffffffffffffffffffffffffffffffffffffffff1673ffffffffffffffffffffffffffffffffffffffff1681526020019081526020016000206001018190555060016000808773ffffffffffffffffffffffffffffffffffffffff1673ffffffffffffffffffffffffffffffffffffffff16815260200190815260200160002060020160006101000a81548160ff0219169083151502179055508473ffffffffffffffffffffffffffffffffffffffff167f22f04e7770a5f138029c34164e3b1399a681e2969172ba4fb8dd113cfe10b6a08585604051808381526020018281526020019250505060405180910390a260019150509392505050565b60016020528060005260406000206000915090508060000154908060010160009054906101000a900473ffffffffffffffffffffffffffffffffffffffff16908060020160009054906101000a900473ffffffffffffffffffffffffffffffffffffffff16908060030160009054906101000a900473ffffffffffffffffffffffffffffffffffffffff16908060030160149054906101000a900460ff1690508556fea165627a7a723058203f017a18efccdb9817d202d157433681524632eda95445aec60d29f151e88fc30029",
  "source": "// Klaytn IDE uses solidity 0.4.24, 0.5.6 versions.\npragma solidity >=0.4.24 <=0.5.6;\n\ncontract ProjectFinance {\n    \n    struct BankAccount {\n      bytes32 name;\n      bytes32 accountNumber;\n      bool doesExist;\n    }\n\n    struct Step {\n      bytes32 stepId;\n      bytes32 projectId;\n      int32 progressPercentage;\n      int32 amountOfMoney;\n      bytes32 currency; // 화폐 단위\n      bool doesExist;\n    }\n\n    struct Project {\n      bytes32 projectId;\n      address pfBanker; // 금융사\n      address pfEnforcer; // 시행사\n      address pfConstructor; // 시행사\n      bool doesExist;\n      bytes32[] stepList; // list of Step keys so we can look up them\n    }\n\n    event CreateBankAccount(address indexed addr, bytes32 name, bytes32 accountNumber);\n    event CreateProject(bytes32 projectId, address indexed pfBanker, address indexed pfEnforcer, address indexed pfConstructor);\n\n    mapping (address => BankAccount) public bankAccounts;\n    mapping (bytes32 => Project) public projects;\n    bytes32[] public projectsLUT;\n\n    modifier onlyUniqueBankAccountAllowed(address _addr) {\n      require(\n        bankAccounts[_addr].doesExist == false,\n        \"given _addr already has bankAccount\"\n      );\n      _;\n    }\n\n    modifier onlyUniqueProjectIdAllowed(bytes32 _projectId) {\n      require(\n        projects[_projectId].doesExist == false,\n        \"given _projectId already exists.\" \n      );\n      _;\n    }\n\n    constructor() public {\n\n    }\n    \n    function createBankAccount(\n      address _addr,\n      bytes32 _name,\n      bytes32 _accountNumber\n    )\n    public\n    onlyUniqueBankAccountAllowed(_addr)\n    returns (bool) {\n      bankAccounts[_addr].name = _name;\n      bankAccounts[_addr].accountNumber = _accountNumber;\n      bankAccounts[_addr].doesExist = true;\n      emit CreateBankAccount(_addr, _name, _accountNumber);\n      return true;\n    }\n\n    function createProject(\n      bytes32 _projectId,\n      address _pfBanker, // 금융사\n      address _pfEnforcer, // 시행사\n      address _pfConstructor // 시행사\n    ) \n    public \n    onlyUniqueProjectIdAllowed(_projectId)\n    returns (bool) {\n      projects[_projectId].projectId = _projectId;\n      projects[_projectId].pfBanker = _pfBanker;\n      projects[_projectId].pfEnforcer = _pfEnforcer;\n      projects[_projectId].pfConstructor = _pfConstructor;\n      projects[_projectId].doesExist = true;\n      emit CreateProject(_projectId, _pfBanker, _pfEnforcer, _pfConstructor);\n      return true;\n    }\n}",
  "sourcePath": "/Users/aeharv/project/github/personal-project/blockchain-connector/contracts/ProjectFinance.sol",
  "compiler": {
    "name": "solc",
    "version": "0.5.1+commit.c8a2cb62.Linux.g++"
  },
  "schemaVersion": "3.0.16",
  "updatedAt": "2020-09-18T15:06:44.267Z",
  "devdoc": {
    "methods": {}
  },
  "userdoc": {
    "methods": {}
  }
}