{
  "contractName": "ProjectFinance",
  "abi": [
    {
      "constant": true,
      "inputs": [
        {
          "name": "",
          "type": "uint256"
        }
      ],
      "name": "projectsLUT",
      "outputs": [
        {
          "name": "",
          "type": "bytes32"
        }
      ],
      "payable": false,
      "stateMutability": "view",
      "type": "function"
    },
    {
      "constant": true,
      "inputs": [
        {
          "name": "",
          "type": "bytes32"
        }
      ],
      "name": "projects",
      "outputs": [
        {
          "name": "projectId",
          "type": "bytes32"
        },
        {
          "name": "pfBanker",
          "type": "address"
        },
        {
          "name": "pfEnforcer",
          "type": "address"
        },
        {
          "name": "pfConstructor",
          "type": "address"
        },
        {
          "name": "doesExist",
          "type": "bool"
        }
      ],
      "payable": false,
      "stateMutability": "view",
      "type": "function"
    },
    {
      "inputs": [],
      "payable": false,
      "stateMutability": "nonpayable",
      "type": "constructor"
    },
    {
      "anonymous": false,
      "inputs": [
        {
          "indexed": true,
          "name": "projectId",
          "type": "bytes32"
        },
        {
          "indexed": false,
          "name": "stepId",
          "type": "bytes32"
        },
        {
          "indexed": false,
          "name": "progressPercentage",
          "type": "int32"
        },
        {
          "indexed": false,
          "name": "amountOfMoney",
          "type": "int32"
        },
        {
          "indexed": false,
          "name": "currency",
          "type": "bytes32"
        }
      ],
      "name": "AddStepToProject",
      "type": "event"
    },
    {
      "anonymous": false,
      "inputs": [
        {
          "indexed": false,
          "name": "projectId",
          "type": "bytes32"
        },
        {
          "indexed": true,
          "name": "pfBanker",
          "type": "address"
        },
        {
          "indexed": true,
          "name": "pfEnforcer",
          "type": "address"
        },
        {
          "indexed": true,
          "name": "pfConstructor",
          "type": "address"
        }
      ],
      "name": "CreateProject",
      "type": "event"
    },
    {
      "constant": false,
      "inputs": [
        {
          "name": "_projectId",
          "type": "bytes32"
        },
        {
          "name": "_pfBanker",
          "type": "address"
        },
        {
          "name": "_pfEnforcer",
          "type": "address"
        },
        {
          "name": "_pfConstructor",
          "type": "address"
        }
      ],
      "name": "createProject",
      "outputs": [
        {
          "name": "",
          "type": "bool"
        }
      ],
      "payable": false,
      "stateMutability": "nonpayable",
      "type": "function"
    },
    {
      "constant": false,
      "inputs": [
        {
          "name": "_stepId",
          "type": "bytes32"
        },
        {
          "name": "_projectId",
          "type": "bytes32"
        },
        {
          "name": "_progressPercentage",
          "type": "int32"
        },
        {
          "name": "_amountOfMoney",
          "type": "int32"
        },
        {
          "name": "_currency",
          "type": "bytes32"
        }
      ],
      "name": "addStepToProject",
      "outputs": [
        {
          "name": "",
          "type": "bool"
        }
      ],
      "payable": false,
      "stateMutability": "nonpayable",
      "type": "function"
    },
    {
      "constant": true,
      "inputs": [
        {
          "name": "_projectId",
          "type": "bytes32"
        }
      ],
      "name": "getStepsLength",
      "outputs": [
        {
          "name": "",
          "type": "uint256"
        }
      ],
      "payable": false,
      "stateMutability": "view",
      "type": "function"
    },
    {
      "constant": true,
      "inputs": [
        {
          "name": "_projectId",
          "type": "bytes32"
        },
        {
          "name": "_index",
          "type": "uint256"
        }
      ],
      "name": "getStep",
      "outputs": [
        {
          "name": "stepId",
          "type": "bytes32"
        },
        {
          "name": "progressPercentage",
          "type": "int32"
        },
        {
          "name": "amountOfMoney",
          "type": "int32"
        },
        {
          "name": "currency",
          "type": "bytes32"
        }
      ],
      "payable": false,
      "stateMutability": "view",
      "type": "function"
    }
  ],
  "bytecode": "0x608060405234801561001057600080fd5b50610b1a806100206000396000f3fe608060405260043610610072576000357c01000000000000000000000000000000000000000000000000000000009004806324a5503114610077578063263a4032146100c6578063483d71a7146101795780638551f608146101fa578063a2787bd014610249578063b96ea12d146102c3575b600080fd5b34801561008357600080fd5b506100b06004803603602081101561009a57600080fd5b81019080803590602001909291905050506103b6565b6040518082815260200191505060405180910390f35b3480156100d257600080fd5b5061015f600480360360808110156100e957600080fd5b8101908080359060200190929190803573ffffffffffffffffffffffffffffffffffffffff169060200190929190803573ffffffffffffffffffffffffffffffffffffffff169060200190929190803573ffffffffffffffffffffffffffffffffffffffff1690602001909291905050506103d9565b604051808215151515815260200191505060405180910390f35b34801561018557600080fd5b506101e0600480360360a081101561019c57600080fd5b810190808035906020019092919080359060200190929190803560030b9060200190929190803560030b906020019092919080359060200190929190505050610647565b604051808215151515815260200191505060405180910390f35b34801561020657600080fd5b506102336004803603602081101561021d57600080fd5b8101908080359060200190929190505050610869565b6040518082815260200191505060405180910390f35b34801561025557600080fd5b5061028c6004803603604081101561026c57600080fd5b81019080803590602001909291908035906020019092919050505061094a565b604051808581526020018460030b60030b81526020018360030b60030b815260200182815260200194505050505060405180910390f35b3480156102cf57600080fd5b506102fc600480360360208110156102e657600080fd5b8101908080359060200190929190505050610a4b565b604051808681526020018573ffffffffffffffffffffffffffffffffffffffff1673ffffffffffffffffffffffffffffffffffffffff1681526020018473ffffffffffffffffffffffffffffffffffffffff1673ffffffffffffffffffffffffffffffffffffffff1681526020018373ffffffffffffffffffffffffffffffffffffffff1673ffffffffffffffffffffffffffffffffffffffff168152602001821515151581526020019550505050505060405180910390f35b6001818154811015156103c557fe5b906000526020600020016000915090505481565b6000846000151560008083815260200190815260200160002060030160149054906101000a900460ff16151514151561047a576040517f08c379a00000000000000000000000000000000000000000000000000000000081526004018080602001828103825260208152602001807f676976656e205f70726f6a656374496420616c7265616479206578697374732e81525060200191505060405180910390fd5b85600080888152602001908152602001600020600001819055508460008088815260200190815260200160002060010160006101000a81548173ffffffffffffffffffffffffffffffffffffffff021916908373ffffffffffffffffffffffffffffffffffffffff1602179055508360008088815260200190815260200160002060020160006101000a81548173ffffffffffffffffffffffffffffffffffffffff021916908373ffffffffffffffffffffffffffffffffffffffff1602179055508260008088815260200190815260200160002060030160006101000a81548173ffffffffffffffffffffffffffffffffffffffff021916908373ffffffffffffffffffffffffffffffffffffffff160217905550600160008088815260200190815260200160002060030160146101000a81548160ff0219169083151502179055508273ffffffffffffffffffffffffffffffffffffffff168473ffffffffffffffffffffffffffffffffffffffff168673ffffffffffffffffffffffffffffffffffffffff167ff9e666999799b7f9a2e2044f8ea30219c67ad8ef5309d0b983617384c0b3fc0b896040518082815260200191505060405180910390a46001915050949350505050565b60008460008082815260200190815260200160002060030160149054906101000a900460ff161515610707576040517f08c379a00000000000000000000000000000000000000000000000000000000081526004018080602001828103825260218152602001807f676976656e205f70726f6a656374496420646f7365206e6f742065786973747381526020017f2e0000000000000000000000000000000000000000000000000000000000000081525060400191505060405180910390fd5b60008087815260200190815260200160002060040160a0604051908101604052808981526020018760030b81526020018660030b815260200185815260200160011515815250908060018154018082558091505090600182039060005260206000209060040201600090919290919091506000820151816000015560208201518160010160006101000a81548163ffffffff021916908360030b63ffffffff16021790555060408201518160010160046101000a81548163ffffffff021916908360030b63ffffffff1602179055506060820151816002015560808201518160030160006101000a81548160ff021916908315150217905550505050857fba83f7743accfb4412bc2f84098ec9c521b2e9ef0ca2131285aa691f7e5cf7dc88878787604051808581526020018460030b60030b81526020018360030b60030b815260200182815260200194505050505060405180910390a25095945050505050565b60008160008082815260200190815260200160002060030160149054906101000a900460ff161515610929576040517f08c379a00000000000000000000000000000000000000000000000000000000081526004018080602001828103825260218152602001807f676976656e205f70726f6a656374496420646f7365206e6f742065786973747381526020017f2e0000000000000000000000000000000000000000000000000000000000000081525060400191505060405180910390fd5b60008084815260200190815260200160002060040180549050915050919050565b6000806000806000808781526020019081526020016000206004018581548110151561097257fe5b906000526020600020906004020160000154600080888152602001908152602001600020600401868154811015156109a657fe5b906000526020600020906004020160010160009054906101000a900460030b600080898152602001908152602001600020600401878154811015156109e757fe5b906000526020600020906004020160010160049054906101000a900460030b6000808a815260200190815260200160002060040188815481101515610a2857fe5b906000526020600020906004020160020154935093509350935092959194509250565b60006020528060005260406000206000915090508060000154908060010160009054906101000a900473ffffffffffffffffffffffffffffffffffffffff16908060020160009054906101000a900473ffffffffffffffffffffffffffffffffffffffff16908060030160009054906101000a900473ffffffffffffffffffffffffffffffffffffffff16908060030160149054906101000a900460ff1690508556fea165627a7a7230582083314d1edab4fd94fb50bcecce9cde3b69cc3a958222b569d4bc753a17b960bb0029",
  "source": "// Klaytn IDE uses solidity 0.4.24, 0.5.6 versions.\npragma solidity >=0.4.24 <=0.5.6;\n\ncontract ProjectFinance {\n    struct Step {\n      bytes32 stepId;\n      int32 progressPercentage;\n      int32 amountOfMoney;\n      bytes32 currency; // 화폐 단위\n      bool doesExist;\n    }\n\n    struct Project {\n      bytes32 projectId;\n      address pfBanker; // 금융사\n      address pfEnforcer; // 시행사\n      address pfConstructor; // 시공사\n      bool doesExist;\n      Step[] stepList; // list of Step keys so we can look up them\n    }\n\n    event AddStepToProject(bytes32 indexed projectId, bytes32 stepId, int32 progressPercentage, int32 amountOfMoney, bytes32 currency);\n    event CreateProject(bytes32 projectId, address indexed pfBanker, address indexed pfEnforcer, address indexed pfConstructor);\n\n    mapping (bytes32 => Project) public projects;\n    bytes32[] public projectsLUT;\n\n    modifier onlyUniqueProjectIdAllowed(bytes32 _projectId) {\n      require(\n        projects[_projectId].doesExist == false,\n        \"given _projectId already exists.\" \n      );\n      _;\n    }\n\n    modifier projectExists(bytes32 _projectId) {\n      require(\n        projects[_projectId].doesExist,\n        \"given _projectId dose not exists.\" \n      );\n      _;\n    }\n\n    constructor() public {\n\n    }\n    \n    function createProject(\n      bytes32 _projectId,\n      address _pfBanker, // 금융사\n      address _pfEnforcer, // 시행사\n      address _pfConstructor // 시공사\n    ) \n    public \n    onlyUniqueProjectIdAllowed(_projectId)\n    returns (bool) {\n      projects[_projectId].projectId = _projectId;\n      projects[_projectId].pfBanker = _pfBanker;\n      projects[_projectId].pfEnforcer = _pfEnforcer;\n      projects[_projectId].pfConstructor = _pfConstructor;\n      projects[_projectId].doesExist = true;\n      emit CreateProject(_projectId, _pfBanker, _pfEnforcer, _pfConstructor);\n      return true;\n    }\n\n    function addStepToProject(\n      bytes32 _stepId,\n      bytes32 _projectId,\n      int32 _progressPercentage,\n      int32 _amountOfMoney,\n      bytes32 _currency\n    )\n    public\n    projectExists(_projectId)\n    returns (bool) {\n      projects[_projectId].stepList.push(\n        Step(_stepId, _progressPercentage, _amountOfMoney, _currency, true)\n      );\n      emit AddStepToProject(_projectId, _stepId, _progressPercentage, _amountOfMoney, _currency);\n    }\n\n    function getStepsLength(\n      bytes32 _projectId\n    )\n    public\n    view\n    projectExists(_projectId)\n    returns (uint256) {\n      return projects[_projectId].stepList.length;\n    }\n    \n    function getStep(\n      bytes32 _projectId,\n      uint256 _index\n    )\n    public\n    view\n    returns (\n      bytes32 stepId,\n      int32 progressPercentage,\n      int32 amountOfMoney,\n      bytes32 currency\n    ) {\n      return ((\n        projects[_projectId].stepList[_index].stepId,\n        projects[_projectId].stepList[_index].progressPercentage,\n        projects[_projectId].stepList[_index].amountOfMoney,\n        projects[_projectId].stepList[_index].currency\n        ));\n    }\n}",
  "sourcePath": "/Users/aeharv/project/github/personal-project/blockchain-connector/contracts/ProjectFinance.sol",
  "compiler": {
    "name": "solc",
    "version": "0.5.1+commit.c8a2cb62.Linux.g++"
  },
  "schemaVersion": "3.0.16",
  "updatedAt": "2020-09-19T05:53:01.222Z",
  "devdoc": {
    "methods": {}
  },
  "userdoc": {
    "methods": {}
  }
}